S00F0000657865637472792E7372656311
S11300000C9482000C949F000C949F000C949F000D
S11300100C949F000C949F000C949F000C949F00E0
S11300200C949F000C949F000C949F000C949F00D0
S11300300C949F000C949F000C949F000C949F00C0
S11300400C945C060C949F000C949F000C949F00ED
S11300500C949F000C949F000C949F000C949F00A0
S11300600C949F000C949F000C949F000C949F0090
S11300700C949F000C949F000C949F000C949F0080
S11300800C949F000C949F000C949F0031062B0647
S11300902F062D062B062B062B062B0637062B06C2
S11300A0350633062B062B062B062B062B062B06B2
S11300B02B062B062B062B062B062B063D062B06A2
S11300C03B0639062B062B062B062B062B062B0686
S11300D02B062B062B062B062B062B062B062B0694
S11300E02B062B062B062B062B062B062B062B0684
S11300F02B062B062B062B062B062B0641062B065E
S113010045063F0611241FBECFEFD0E1DEBFCDBFB1
S113011012E0A0E0B1E0E0E1F4E102C005900D924C
S1130120A838B107D9F722E0A8E8B2E001C01D92CF
S1130130AF39B207E1F70E9437040C94060A0C9415
S11301400000892B21F082B18F7082B9089582B1A9
S1130150806F82B908950F931F93CF938C01C62F9C
S113016080E090E00E94A100012B29F0E2E6F0E09B
S1130170808182608083E2E6F0E080818B7F8083EF
S11301808FEC97E00197F1F700C000008081886050
S113019080838FEC97E00197F1F700C0000083B1F2
S11301A090E1C99FB0011124682B63B98FEC97E0EB
S11301B00197F1F700C000008081817F80838FEC7C
S11301C097E00197F1F700C0000083B18F7083B905
S11301D08FEC97E00197F1F700C00000CF911F91D9
S11301E00F910895CF93C82F682F62956F7080E0A8
S11301F090E00E94AB006C2F6F7080E090E00E9452
S1130200AB008FEC97E00197F1F700C00000CF91AD
S11302100895CF93C82F682F62956F7081E090E0A6
S11302200E94AB006C2F6F7081E090E00E94AB00E5
S11302308FEC97E00197F1F700C00000CF9108958B
S11302400F931F93CF93DF938B0190E0880F991F37
S1130250880F991F880F991F80640E94F200C0E0E4
S1130260D0E007C0F801EC0FFD1F80810E94090156
S11302702196C830D105B4F3DF91CF911F910F912E
S113028008950F931F93CF93DF938C01EB0182E0CA
S11302900E94F200C130D10571F01CF4CD2B39F06D
S11302A00DC0C230D10569F0239779F007C080E80A
S11302B00E94F20003C088EA0E94F200C0E0D0E08D
S11302C00DC080E90E94F200F9CF80ED0E94F20097
S11302D0F5CF0E9409010F5F1F4F2196C031D10550
S11302E024F4F80180818111F4CFDF91CF911F9123
S11302F00F9108956F927F928F929F92AF92BF92C7
S1130300CF92DF92EF92FF920F931F93CF93DF93DD
S1130310CDB7DEB7C65BD1090FB6F894DEBF0FBE0A
S1130320CDBF182F092F762E672E942E852EB22E30
S1130330A32E83E1E3E7F1E0DE01119601900D9233
S11303408A95E1F786E2E6E8F1E0DE015496019051
S11303500D928A95E1F71BAE1AAEA12FB92FFD01BC
S113036001900020E9F73197EA1BFB0BFDAFECAFDE
S1130370A62FB72FFD0101900020E9F73197EA1B62
S1130380FB0BFFAFEEAFA42FB52FFD0101900020B2
S1130390E9F73197EA1BFB0B2296FFAFEEAF2297EA
S11303A0A22FB32FFD0101900020E9F73197EA1B3A
S11303B0FB0B2496FFAFEEAF249742E150E06FEFC2
S11303C07FEFCE018C5B9F4F0E940A076E0184E58C
S11303D0C80ED11C81E4F60111928A95E9F70F93B6
S11303E01F930F2EFCEAEF2EF1E0FF2EF02DFF926B
S11303F0EF928E010A551F4F1F930F930E941C0703
S1130400B801C6010E9411076F927F92FF92EF928A
S11304101F930F930E941C07B801C6010E94110785
S11304208F929F92FF92EF921F930F930E941C074B
S1130430B801C6010E941107AF92BF92FF92EF92DA
S11304401F930F930E941C07B801C6010E94110755
S113045081E00E94F20082E00E94F20088EA0E9499
S1130460F2000FB6F894DEBF0FBECDBFE12CF12C25
S113047000E010E068C0662334F4CE0101960E94C7
S11304808E066C0103C0CC24CA94DC2CDD200CF451
S113049057C0F601EE0FFF1F81E090E08C0F9D1F07
S11304A0E80FF91F83899489892B89F148E050E08A
S11304B0B601CE018C5B9F4F0E949E0699234CF09F
S11304C0E4E5F0E0EC0FFD1FEE0DFF1D885F808377
S11304D037C080917001909171010817190784F554
S11304E0F801EE0FFF1F84E490E08C0F9D1FE80FCE
S11304F0F91FD182C082E4E5F0E0EC0FFD1FEE0DA0
S1130500FF1D88E0800F80830F5F1F4F19C095E0A7
S1130510C916D10421F0EEE0CE16D10449F4E4E585
S1130520F0E0EC0FFD1FEE0DFF1D8FEE808308C081
S1130530E4E5F0E0EC0FFD1FEE0DFF1D85EF808379
S1130540FFEFEF1AFF0AE4E5F0E0EC0FFD1FEE0DFC
S1130550FF1D608161118FCFE12CF12C1CC0F701CC
S1130560EE0FFF1F84E490E08C0F9D1FE80FF91F2E
S11305700190F081E02DEE0FFF1F81E090E08C0FE1
S11305809D1FE80FF91F638974898E2D0E94200135
S11305909FEFE91AF90AE016F1060CF380E80E94CD
S11305A0F200E12CF12CA12CB12C31C06E01E5E953
S11305B0CE0ED11C81E1F60111928A95E9F737013B
S11305C0FFEF6F1A7F0AF301EE0FFF1F81E090E047
S11305D08C0F9D1FE80FF91F41AD52ADF701EE0FCF
S11305E0FF1FE80FF91F81AC92AC64E570E06C0F5B
S11305F07D1F680D791D6A0D7B1DC6010E940107D0
S1130600B701C6010E944101A80CB91C730194E012
S1130610E916F1045CF2C801CA54DF4F0FB6F8942E
S1130620DEBF0FBECDBFDF91CF911F910F91FF9021
S1130630EF90DF90CF90BF90AF909F908F907F907E
S11306406F9008958EE0809361002FEF89EF90E022
S1130650215080409040E1F700C0000063E080E05A
S113066090E00E94AB008FE097E20197F1F700C0A1
S1130670000063E080E090E00E94AB008FEC97E024
S11306800197F1F700C0000063E080E090E00E9471
S1130690AB008FEC97E00197F1F700C0000062E037
S11306A080E090E00E94AB0088E20E94F2008EE0BD
S11306B00E94F20081E00E94F20086E00E94F200B3
S11306C082E00E94F20022EB31E041EC51E06EEC5A
S11306D071E08FED91E00E947A019FEF24E38CE0BA
S11306E0915020408040E1F700C0000022EB31E04F
S11306F04EEE51E06CEF71E08DE092E00E947A01E1
S11307009FEF21EE84E0915020408040E1F700C04B
S1130710000008959093710180937001089592B33D
S113072080918802807F8095892382BB28B3909131
S1130730880230E1939FC00111248095822388BBF5
S113074008950F931F93CF93DF93EC018B010297CE
S1130750CE9710F40E948F03012B99F0CE01807F75
S11307609927892B21F082B3C82BC2BB1AC088B346
S1130770C295D295D07FDC27C07FDC27C82BC8BBAD
S113078010C0CE01807F9927892B29F082B3C095B0
S1130790C823C2BB06C088B3C295C07FC095C82316
S11307A0C8BBDF91CF911F910F910895AC0120B385
S11307B096B3207F92959F70292B30E02423352314
S11307C061E070E0232B11F060E070E0CA010E9448
S11307D0A1030895CF93DF93C1E0D0E01EC061E090
S11307E070E0CE010E94A1032FEF81EE94E021502E
S11307F080409040E1F700C0000060E070E0CE016E
S11308000E94A1032FE788E391E0215080409040AB
S1130810E1F700C00000CC0FDD1FCF3FD105F9F296
S1130820F4F282B3806F82BB88B3806F88BB2FEFF2
S113083081EE94E0215080409040E1F700C0000038
S113084082B38F7082BB88B38F7088BBDF91CF91E6
S11308500895CF93C82F81B3806F81BB87B3806F16
S113086087BB0E94EA03C0938802CF910895CF9377
S1130870DF9300D000D000D0CDB7DEB78FEF8ABBB6
S11308801BBA0E9422038EE30E9429040E94E504FD
S113089088E090E00E948A0381E00E94F20082E0F6
S11308A00E94F200E4E6F0E08081807E808380E0B4
S11308B00F2EF3E0FF2EF02D00E002C0F02E812F6A
S11308C010916300811711F0111102C00111F7CFCB
S11308D0123081F018F4113089F016C0183031F05C
S11308E0103191F4013091F001E015C0023081F033
S11308F002E011C0043071F004E00DC081E090E02A
S11309000E94D6030F2D07C00F2D05C003E003C0BE
S113091003E001C003E00230B9F118F40130F9F04A
S1130920CDCF033019F00430D9F1C8CF61E070E0C5
S113093084E090E00E94A1031E821D829E012A5F32
S11309403F4F4EE152E06BE272E0CE0105960E9409
S11309507A0180E090E00E948406F02EB0CF61E03E
S113096070E080E190E00E94A1031C821B829E0142
S11309702C5F3F4F4EE152E06CE372E0CE010396F0
S11309800E947A01F02E9BCF61E070E088E090E055
S11309900E94A10381E090E00E948406F02E8FCF94
S11309A061E070E082E090E00E94A1031A82198263
S11309B09E012E5F3F4F4EE152E06DE472E0CE01A6
S11309C001960E947A01F02E7ACF8FEF8ABB88E7D6
S11309D084BB83E083BF78940895EEE8F2E09DEC55
S11309E0899F212D1124269526952695422F440F63
S11309F0342F330F330F340F482F431B4083299F69
S1130A00912D1124969596959695990F392F330F1C
S1130A10330F930F291B218399E2899F812D112480
S1130A2082958F70828380918C0290918D020196C1
S1130A3063E070E00E94D30690938D0280938C0251
S1130A409C0122953295307F3227207F3227FC018A
S1130A50E257FD4F8081282B20682BBB0895CF934C
S1130A60DF93CDB7DEB7A0970FB6F894DEBF0FBE05
S1130A70CDBF81E00E94F20082E00E94F20021E0FA
S1130A8080918902811120E0609192027091930219
S1130A908091940290919502AE014F5F5F4F0E9446
S1130AA0B30660919602709197028091980290919A
S1130AB0990220918902AE014F5E5F4F0E94B306F6
S1130AC09E012F5E3F4F4EE552E0BE016F5F7F4FA8
S1130AD08DE692E00E947A01A0960FB6F894DEBFEC
S1130AE00FBECDBFDF91CF9108958B309105B1F149
S1130AF08336910509F483C08A30910509F051C009
S1130B00E0918A02E43008F07AC080918902811170
S1130B1007C0F0E0EE56FD4F80918B02808306C043
S1130B20F0E0EA56FD4F80918B0280830E942F05EE
S1130B3010928B0280918A028F5F80938A028430A4
S1130B4009F05DC081E090918902911180E0809369
S1130B50890210928A020E942F05089580918B02C7
S1130B60882389F090918902911107C0E0918A024B
S1130B70F0E0EE56FD4F808306C0E0918A02F0E07B
S1130B80EA56FD4F808381E090918902911180E0C3
S1130B908093890210928B0210928A020E942F0580
S1130BA0089540918B02242F30E0B901660F771F1E
S1130BB0220F331F220F331F220F331F260F371F1D
S1130BC02F3F3105CCF44B3048F0440F942F990F4C
S1130BD0990F490F840F80938B020895442349F0A1
S1130BE0440F942F990F990F490F840F80938B0210
S1130BF0089580938B0208958FEF80938B0208955C
S1130C00CF93DF938091720185BB83B3E82FEF7795
S1130C10E0939E0280917201803231F0803431F091
S1130C20803131F0C0E005C0C2E003C0C3E001C0C0
S1130C30C1E0D0E0DE01A656BD4F8C91E81719F152
S1130C408E2F90E0FC013B97EC33F10520F4EA5B36
S1130C50FF4F0C94E70683E619C081E017C082E0D9
S1130C6015C083E013C084E011C085E00FC086E0A6
S1130C700DC087E00BC088E009C089E007C08AE0A6
S1130C8005C08BE003C083E601C080E090E00E94D1
S1130C907505C656DD4F80919E028883809172014E
S1130CA0803421F488E08093720103C0880F80931C
S1130CB07201DF91CF9108951F920F920FB60F9298
S1130CC011242F933F934F935F936F937F938F934D
S1130CD09F93AF93BF93EF93FF930E94000680917D
S1130CE08B020E94ED04FF91EF91BF91AF919F9110
S1130CF08F917F916F915F914F913F912F910F90C1
S1130D000FBE0F901F901895892B29F00E942F0574
S1130D1081E087BF089517BE1BBA0895AC0180E037
S1130D2090E003C0261749F00196FA01E80FF91F75
S1130D3020812111F7CF8FEF9FEF0895DC0180E030
S1130D4090E00BC0FC01EE0FFF1FEA0FFB1F208198
S1130D5031812617370731F001968417950794F3EC
S1130D608FEF9FEF0895211102C020E201C02EE30E
S1130D701F929F931F928F931F927F931F926F9343
S1130D801F922F9389E792E09F938F935F934F93E2
S1130D900E941C078DB79EB70E960FB6F8949EBF9F
S1130DA00FBE8DBF089597FB072E16F4009407D04D
S1130DB077FD09D00E94ED0607FC05D03EF490951E
S1130DC081959F4F0895709561957F4F0895EE0F1B
S1130DD0FF1F0590F491E02D0994AA1BBB1B51E160
S1130DE007C0AA1FBB1FA617B70710F0A61BB70B97
S1130DF0881F991F5A95A9F780959095BC01CD013C
S1130E000895FB01DC0102C001900D924150504055
S1130E10D8F70895DC0101C06D9341505040E0F7CC
S1130E200895FB01DC010D900020E9F71197019072
S1130E300D920020E1F70895AEE0B0E0E2E2F7E0C1
S1130E400C94DD090D891E8986E08C831A8309833D
S1130E508FEF9FE79E838D83AE01475E5F4F6F895F
S1130E60788DCE0101960E943E07EF81F885E00F50
S1130E70F11F10822E96E4E00C94F909ABE0B0E087
S1130E80E4E4F7E00C94CF096C017B018A01FC01D6
S1130E9017821682838181FFCCC1CE0101963C0169
S1130EA0F6019381F70193FD859193FF81917F0171
S1130EB0882309F4BAC1853239F493FD859193FFEF
S1130EC081917F01853229F4B60190E00E943509B1
S1130ED0E7CF912C212C312CFFE1F315D8F08B3284
S1130EE079F038F4803279F08332A1F4232D206133
S1130EF01DC08D3261F0803369F4232D216016C04A
S1130F00832D8260382EE32DE4603E2E2AC0F32D1B
S1130F10F8601DC037FC2DC020ED280F2A3040F0AA
S1130F208E32B9F436FC81C1232D2064322E19C0CF
S1130F3036FE06C08AE0989E200D1124922E11C020
S1130F40EAE02E9E200D1124222EF32DF0623F2E76
S1130F5008C08C3621F4832D8068382E02C0883670
S1130F6041F4F70193FD859193FF81917F018111F4
S1130F70B3CF982F9F7D9554933028F40C5F1F4F67
S1130F809FE399830DC0833631F0833771F0833545
S1130F9009F059C021C0F801808189830E5F1F4F79
S1130FA088248394912C530113C02801F2E04F0E3E
S1130FB0511CF801A080B18036FE03C0692D70E099
S1130FC002C06FEF7FEFC5010E942A094C01820124
S1130FD0F32DFF773F2E16C0280122E0420E511C4C
S1130FE0F801A080B18036FE03C0692D70E002C014
S1130FF06FEF7FEFC5010E941F094C01F32DF068CC
S11310003F2E820133FC1BC0822D90E08816990686
S1131010B0F4B60180E290E00E9435092A94F4CF3E
S1131020F50137FC859137FE81915F01B60190E0AF
S11310300E94350921102A9421E0821A9108811412
S1131040910471F7E8C0843611F0893641F5F8014E
S113105037FE07C060817181828193810C5F1F4FCD
S113106008C060817181072E000C880B990B0E5FFC
S11310701F4FF32DFF763F2E97FF09C09095809563
S1131080709561957F4F8F4F9F4FF0683F2E2AE0F8
S113109030E0A3010E947109882E861845C0853767
S11310A031F4232D2F7EB22E2AE030E025C0932D7B
S11310B0997FB92E8F36C1F018F4883579F0B5C010
S11310C0803719F0883721F0B0C0E92FE061BE2ED7
S11310D0B4FE0DC0FB2DF460BF2E09C034FE0AC05F
S11310E0292F2660B22E06C028E030E005C020E19A
S11310F030E002C020E132E0F801B7FE07C06081B1
S11311007181828193810C5F1F4F06C06081718160
S113111080E090E00E5F1F4FA3010E947109882EAA
S11311208618FB2DFF773F2E36FE0DC0232D2E7F14
S1131130A22E891458F434FE0BC032FC09C0832D4E
S11311408E7EA82E05C0B82CA32C03C0B82C01C0D9
S1131150B92CA4FE0FC0FE01E80DF11D808180337F
S113116021F49A2D997EA92E09C0A2FE06C0B3943B
S1131170B39404C08A2D867809F0B394A3FC11C0FB
S1131180A0FE06C0B21488F4280C922C9B180EC042
S1131190B21460F4B60180E290E00E943509B39481
S11311A0F7CFB21418F42B1802C0982C212CA4FEEB
S11311B010C0B60180E390E00E943509A2FE17C07A
S11311C0A1FC03C088E790E002C088E590E0B60186
S11311D00CC08A2D867859F0A1FE02C08BE201C0B2
S11311E080E2A7FC8DE2B60190E00E9435098914E3
S11311F038F4B60180E390E00E9435099A94F7CF61
S11312008A94F301E80DF11D8081B60190E00E94FB
S113121035098110F5CF222009F442CEB60180E2CF
S113122090E00E9435092A94F6CFF60186819781D1
S113123002C08FEF9FEF2B96E2E10C94EB09FC01C7
S11312400590615070400110D8F7809590958E0FED
S11312509F1F0895FC016150704001900110D8F760
S1131260809590958E0F9F1F08950F931F93CF9392
S1131270DF93FB01238121FD03C08FEF9FEF2CC07F
S113128022FF16C0468157812481358142175307B6
S113129044F4A081B1819D012F5F3F4F31832083AE
S11312A08C93268137812F5F3F4F3783268314C069
S11312B08B01EC01FB010084F185E02D0995892B5C
S11312C0E1F6D80116968D919C9117970196179681
S11312D09C938E931697CE01DF91CF911F910F911E
S11312E00895FA01AA27283051F1203181F1E894B8
S11312F06F936E7F6E5F7F4F8F4F9F4FAF4FB1E005
S11313003ED0B4E03CD0670F781F891F9A1FA11DFF
S1131310680F791F8A1F911DA11D6A0F711D811D00
S1131320911DA11D20D009F468943F912AE0269FC5
S113133011243019305D3193DEF6CF010895462F24
S11313404770405D4193B3E00FD0C9F7F6CF462F05
S11313504F70405D4A3318F0495D31FD405241936E
S113136002D0A9F7EACFB4E0A6959795879577952B
S11313706795BA95C9F700976105710508959B01B2
S1131380AC010A2E06945795479537952795BA953B
S1131390C9F7620F731F841F951FA01D08952F9214
S11313A03F924F925F926F927F928F929F92AF92F1
S11313B0BF92CF92DF92EF92FF920F931F93CF933E
S11313C0DF93CDB7DEB7CA1BDB0B0FB6F894DEBFD5
S11313D00FBECDBF09942A88398848885F846E84FB
S11313E07D848C849B84AA84B984C884DF80EE8045
S11313F0FD800C811B81AA81B981CE0FD11D0FB64E
S1131400F894DEBF0FBECDBFED010895F894FFCF71
S11314100A0A00111111130D0A0A11111111130DE9
S1131420040400111111130D040411111111130DF1
S11314300A0A000E1111110E0A0A0E111111110ED1
S11314400404000E1111110E04040E111111110ED9
S1131450040400040C04040E0404000E0404040E2A
S11314600404000E111F100E0404001F101E101F90
S11314700404000E010F110F0404000E111F1111BA
S1131480080008C1C9CDD3D5D6DADBDCE1E9EDF338
S1131490F5F6FAFBFC0068015801480138012801FF
S11314A000001801080100006001500140013001F2
S11314B0200100001001000100000000252E31363B
S11314C073003E3E20426574F66C74E9732E2E2E32
S11314D00020202063736F6DF3706F6E740041728F
S11314E0744E657476342B534C4C43507631002043
S11314F020542D4269726420616C6170FA002020CE
S11315007665727A69F32076312E3000202020200F
S11315106669726D7761726520202020002020208A
S11315202020542D42697264202020202000202095
S113153020206BE97065726E79F500202053746188
S11315407469737A74696BE16B2020002020204950
S11315505020FC7A656D6DF364202020002020204B
S1131560444D5820646972656B74202020005375C3
S1131570626E6574206164647265737300495020FF
S1131580616464726573733A00256325642E25646F
S10B15902E25642E25640000E1
S9030000FC
