S00F0000657865637472792E7372656311
S11300000C9446000C9463000C9463000C946300FD
S11300100C9463000C9463000C9463000C946300D0
S11300200C9463000C9463000C9463000C946300C0
S11300300C9463000C9463000C9463000C946300B0
S11300400C9463000C9463000C9463000C946300A0
S11300500C9463000C9463000C9463000C94630090
S11300600C9463000C9463000C9463000C94630080
S11300700C9463000C9463000C9463000C94630070
S11300800C9463000C9463000C94630011241FBE51
S1130090CFEFD0E1DEBFCDBF12E0A0E0B1E0E6EDEE
S11300A0FFE002C005900D92A637B107D9F722E010
S11300B0A6E7B2E001C01D92A737B207E1F70E949C
S11300C000040C94E9070C940000892B21F082B100
S11300D08F7082B9089582B1806F82B908950F93A9
S11300E01F93CF938C01C62F80E090E00E9465009F
S11300F0012B29F0E2E6F0E0808182608083E2E671
S1130100F0E080818B7F80838FEC97E00197F1F79B
S113011000C000008081886080838FEC97E00197A5
S1130120F1F700C0000083B190E1C99FB001112430
S1130130682B63B98FEC97E00197F1F700C00000DA
S11301408081817F80838FEC97E00197F1F700C075
S1130150000083B18F7083B98FEC97E00197F1F7BA
S113016000C00000CF911F910F910895CF93C82F25
S1130170682F62956F7080E090E00E946F006C2F92
S11301806F7080E090E00E946F008FEC97E0019721
S1130190F1F700C00000CF910895CF93C82F682FC6
S11301A062956F7081E090E00E946F006C2F6F7019
S11301B081E090E00E946F008FEC97E00197F1F7E7
S11301C000C00000CF9108950F931F93CF93DF9346
S11301D08B0190E0880F991F880F991F880F991F32
S11301E080640E94B600C0E0D0E007C0F801EC0FC4
S11301F0FD1F80810E94CD002196C830D105B4F343
S1130200DF91CF911F910F9108950F931F93CF9377
S1130210DF938C01EB0182E00E94B600C130D1056E
S113022071F01CF4CD2B39F00DC0C230D10569F04A
S1130230239779F007C080E80E94B60003C088EADB
S11302400E94B600C0E0D0E00DC080E90E94B60074
S1130250F9CF80ED0E94B600F5CF0E94CD000F5F6C
S11302601F4F2196C031D10524F4F80180818111FA
S1130270F4CFDF91CF911F910F9108956F927F92E8
S11302808F929F92AF92BF92CF92DF92EF92FF92A2
S11302900F931F93CF93DF93CDB7DEB7C65BD1091E
S11302A00FB6F894DEBF0FBECDBF182F092F762EE0
S11302B0672E942E852EB22EA32E83E1EAE7F1E079
S11302C0DE01119601900D928A95E1F786E2EDE840
S11302D0F1E0DE01549601900D928A95E1F71BAE90
S11302E01AAEA12FB92FFD0101900020E9F7319733
S11302F0EA1BFB0BFDAFECAFA62FB72FFD0101905E
S11303000020E9F73197EA1BFB0BFFAFEEAFA42FF8
S1130310B52FFD0101900020E9F73197EA1BFB0B93
S11303202296FFAFEEAF2297A22FB32FFD010190CB
S11303300020E9F73197EA1BFB0B2496FFAFEEAFE1
S1130340249742E150E06FEF7FEFCE018C5B9F4F2B
S11303500E94ED046E0184E5C80ED11C81E4F6010F
S113036011928A95E9F70F931F930F2EF3EBEF2E5B
S1130370F1E0FF2EF02DFF92EF928E010A551F4FF0
S11303801F930F930E94FF04B801C6010E94F40456
S11303906F927F92FF92EF921F930F930E94FF043C
S11303A0B801C6010E94F4048F929F92FF92EF92CB
S11303B01F930F930E94FF04B801C6010E94F40426
S11303C0AF92BF92FF92EF921F930F930E94FF048C
S11303D0B801C6010E94F40481E00E94B60082E0E4
S11303E00E94B60088EA0E94B6000FB6F894DEBFF9
S11303F00FBECDBFE12CF12C00E010E068C06623F5
S113040034F4CE0101960E94BF046C0103C0CC24D5
S1130410CA94DC2CDD200CF457C0F601EE0FFF1F4C
S113042081E090E08C0F9D1FE80FF91F8389948968
S1130430892B89F148E050E0B601CE018C5B9F4FD7
S11304400E94CF0499234CF0E4E5F0E0EC0FFD1F8B
S1130450EE0DFF1D885F808337C0809170019091FD
S113046071010817190784F5F801EE0FFF1F84E4E2
S113047090E08C0F9D1FE80FF91FD182C082E4E544
S1130480F0E0EC0FFD1FEE0DFF1D88E0800F808370
S11304900F5F1F4F19C095E0C916D10421F0EEE09B
S11304A0CE16D10449F4E4E5F0E0EC0FFD1FEE0DA7
S11304B0FF1D8FEE808308C0E4E5F0E0EC0FFD1F24
S11304C0EE0DFF1D85EF8083FFEFEF1AFF0AE4E5D1
S11304D0F0E0EC0FFD1FEE0DFF1D608161118FCF69
S11304E0E12CF12C1CC0F701EE0FFF1F84E490E017
S11304F08C0F9D1FE80FF91F0190F081E02DEE0F86
S1130500FF1F81E090E08C0F9D1FE80FF91F6389A6
S113051074898E2D0E94E4009FEFE91AF90AE0160F
S1130520F1060CF380E80E94B600E12CF12CA12C1A
S1130530B12C31C06E01E5E9CE0ED11C81E1F6018A
S113054011928A95E9F73701FFEF6F1A7F0AF301D9
S1130550EE0FFF1F81E090E08C0F9D1FE80FF91F45
S113056041AD52ADF701EE0FFF1FE80FF91F81AC4B
S113057092AC64E570E06C0F7D1F680D791D6A0D07
S11305807B1DC6010E94E404B701C6010E94050157
S1130590A80CB91C730194E0E916F1045CF2C801DB
S11305A0CA54DF4F0FB6F894DEBF0FBECDBFDF9144
S11305B0CF911F910F91FF90EF90DF90CF90BF905C
S11305C0AF909F908F907F906F9008958EE080936E
S11305D061002FEF89EF90E0215080409040E1F7D7
S11305E000C0000063E080E090E00E946F008FE0B4
S11305F097E20197F1F700C0000063E080E090E02B
S11306000E946F008FEC97E00197F1F700C00000A3
S113061063E080E090E00E946F008FEC97E0019728
S1130620F1F700C0000062E080E090E00E946F00FB
S113063088E20E94B6008EE00E94B60081E00E942B
S1130640B60086E00E94B60082E00E94B60029EB64
S113065031E048EC51E065ED71E086EE91E00E94F6
S11306603E019FEF24E38CE0915020408040E1F76D
S113067000C0000029EB31E045EF51E063E072E097
S113068084E192E00E943E019FEF21EE84E09150CC
S113069020408040E1F700C000000895809170017F
S11306A09091710108959093710180937001089560
S11306B092B380917602807F8095892382BB28B390
S11306C09091760230E1939FC0011124809582239A
S11306D088BB08950F931F93CF93DF93EC018B0195
S11306E00297CE9710F40E945803012B99F0CE0183
S11306F0807F9927892B21F082B3C82BC2BB1AC0F3
S113070088B3C295D295D07FDC27C07FDC27C82B65
S1130710C8BB10C0CE01807F9927892B29F082B3F2
S1130720C095C823C2BB06C088B3C295C07FC0951C
S1130730C823C8BBDF91CF911F910F910895AC01DD
S113074020B396B3207F92959F70292B30E0242309
S1130750352361E070E0232B11F060E070E0CA0102
S11307600E946A030895CF93DF93C1E0D0E01EC0D6
S113077061E070E0CE010E946A032FEF81EE94E005
S1130780215080409040E1F700C0000060E070E03C
S1130790CE010E946A032FE788E391E02150804054
S11307A09040E1F700C00000CC0FDD1FCF3FD10522
S11307B0F9F2F4F282B3806F82BB88B3806F88BB96
S11307C02FEF81EE94E0215080409040E1F700C08B
S11307D0000082B38F7082BB88B38F7088BBDF91B7
S11307E0CF910895CF93C82F81B3806F81BB87B316
S11307F0806F87BB0E94B303C0937602CF910895A4
S1130800CF93DF93CDB7DEB769970FB6F894DEBF09
S11308100FBECDBF8FEF8ABB1BBA0E94E6028EE3E8
S11308200E94F20385E090E00E94530362E771E0C6
S113083087E00E94E4000E944E0301970E94530344
S113084081E00E94B60082E00E94B600E4E6F0E097
S11308508081807E8083FE01399681E1DF011D92D3
S11308608A95E9F780E00F2EF3E0FF2EF02D00E0EB
S113087002C0F02E812F10916300811711F0111125
S113088002C00111F7CF1230E1F018F4113019F160
S113089028C0183061F0103121F561E070E080E18A
S11308A090E00E946A030130F1F001E021C061E0B0
S11308B070E088E090E00E946A030230B1F002E048
S11308C017C061E070E082E090E00E946A030430A7
S11308D071F004E00DC081E090E00E949F030F2DB1
S11308E007C00F2D05C003E003C003E001C003E00F
S11308F0023039F118F40130A9F0BBCF033019F0FC
S1130900043071F1B6CF18861F829E01285F3F4FD5
S113091045E252E062E372E0CE0107960E943E0196
S1130920F02EA8CF1E821D829E012A5F3F4F45E212
S113093052E063E472E0CE0105960E943E01F02E7F
S113094099CF1C821B829E012C5F3F4F45E252E0EF
S113095064E572E0CE0103960E943E01F02E8ACF38
S11309601A8219829E012E5F3F4F45E252E065E6EE
S113097072E0CE0101960E943E01F02E7BCFAC01C5
S113098080E090E003C0261749F00196FA01E80FD1
S1130990F91F20812111F7CF8FEF9FEF0895DC011C
S11309A080E090E00BC0FC01EE0FFF1FEA0FFB1F7D
S11309B0208131812617370731F001968417950776
S11309C094F38FEF9FEF0895FB01DC0102C00190C7
S11309D00D9241505040D8F70895DC0101C06D9349
S11309E041505040E0F70895FB01DC010D900020D8
S11309F0E9F7119701900D920020E1F70895AEE018
S1130A00B0E0E5E0F5E00C94C0070D891E8986E0AE
S1130A108C831A8309838FEF9FE79E838D83AE01B6
S1130A20475E5F4F6F89788DCE0101960E94210544
S1130A30EF81F885E00FF11F10822E96E4E00C940C
S1130A40DC07ABE0B0E0E7E2F5E00C94B2076C0140
S1130A507B018A01FC0117821682838181FFCCC14C
S1130A60CE0101963C01F6019381F70193FD859136
S1130A7093FF81917F01882309F4BAC1853239F447
S1130A8093FD859193FF81917F01853229F4B6010D
S1130A9090E00E941807E7CF912C212C312CFFE124
S1130AA0F315D8F08B3279F038F4803279F0833250
S1130AB0A1F4232D20611DC08D3261F0803369F4CF
S1130AC0232D216016C0832D8260382EE32DE4602F
S1130AD03E2E2AC0F32DF8601DC037FC2DC020ED3A
S1130AE0280F2A3040F08E32B9F436FC81C1232D10
S1130AF02064322E19C036FE06C08AE0989E200D6E
S1130B001124922E11C0EAE02E9E200D1124222ED3
S1130B10F32DF0623F2E08C08C3621F4832D8068BB
S1130B20382E02C0883641F4F70193FD859193FF76
S1130B3081917F018111B3CF982F9F7D955493307C
S1130B4028F40C5F1F4F9FE399830DC0833631F067
S1130B50833771F0833509F059C021C0F8018081D1
S1130B6089830E5F1F4F88248394912C530113C0F3
S1130B702801F2E04F0E511CF801A080B18036FE2E
S1130B8003C0692D70E002C06FEF7FEFC5010E94C2
S1130B900D074C018201F32DFF773F2E16C028016B
S1130BA022E0420E511CF801A080B18036FE03C041
S1130BB0692D70E002C06FEF7FEFC5010E9402074C
S1130BC04C01F32DF0683F2E820133FC1BC0822DB3
S1130BD090E088169906B0F4B60180E290E00E9495
S1130BE018072A94F4CFF50137FC859137FE8191DB
S1130BF05F01B60190E00E94180721102A9421E0B9
S1130C00821A91088114910471F7E8C0843611F0B6
S1130C10893641F5F80137FE07C060817181828110
S1130C2093810C5F1F4F08C060817181072E000CF7
S1130C30880B990B0E5F1F4FF32DFF763F2E97FF06
S1130C4009C090958095709561957F4F8F4F9F4F08
S1130C50F0683F2E2AE030E0A3010E945407882E5A
S1130C60861845C0853731F4232D2F7EB22E2AE015
S1130C7030E025C0932D997FB92E8F36C1F018F43A
S1130C80883579F0B5C0803719F0883721F0B0C0C5
S1130C90E92FE061BE2EB4FE0DC0FB2DF460BF2E23
S1130CA009C034FE0AC0292F2660B22E06C028E0EF
S1130CB030E005C020E130E002C020E132E0F8017C
S1130CC0B7FE07C060817181828193810C5F1F4FE1
S1130CD006C06081718180E090E00E5F1F4FA30128
S1130CE00E945407882E8618FB2DFF773F2E36FE70
S1130CF00DC0232D2E7FA22E891458F434FE0BC070
S1130D0032FC09C0832D8E7EA82E05C0B82CA32CDE
S1130D1003C0B82C01C0B92CA4FE0FC0FE01E80D1D
S1130D20F11D8081803321F49A2D997EA92E09C06A
S1130D30A2FE06C0B394B39404C08A2D867809F049
S1130D40B394A3FC11C0A0FE06C0B21488F4280C0E
S1130D50922C9B180EC0B21460F4B60180E290E0AD
S1130D600E941807B394F7CFB21418F42B1802C0DA
S1130D70982C212CA4FE10C0B60180E390E00E94C0
S1130D801807A2FE17C0A1FC03C088E790E002C0C8
S1130D9088E590E0B6010CC08A2D867859F0A1FE52
S1130DA002C08BE201C080E2A7FC8DE2B60190E0B4
S1130DB00E941807891438F4B60180E390E00E9479
S1130DC018079A94F7CF8A94F301E80DF11D8081F6
S1130DD0B60190E00E9418078110F5CF222009F493
S1130DE042CEB60180E290E00E9418072A94F6CF22
S1130DF0F6018681978102C08FEF9FEF2B96E2E187
S1130E000C94CE07FC010590615070400110D8F796
S1130E10809590958E0F9F1F0895FC01615070403E
S1130E2001900110D8F7809590958E0F9F1F08951B
S1130E300F931F93CF93DF93FB01238121FD03C005
S1130E408FEF9FEF2CC022FF16C04681578124816B
S1130E5035814217530744F4A081B1819D012F5F6E
S1130E603F4F318320838C93268137812F5F3F4FFF
S1130E703783268314C08B01EC01FB010084F185C8
S1130E80E02D0995892BE1F6D80116968D919C9158
S1130E901797019617969C938E931697CE01DF9120
S1130EA0CF911F910F910895FA01AA27283051F18B
S1130EB0203181F1E8946F936E7F6E5F7F4F8F4F87
S1130EC09F4FAF4FB1E03ED0B4E03CD0670F781FE6
S1130ED0891F9A1FA11D680F791F8A1F911DA11DCB
S1130EE06A0F711D811D911DA11D20D009F4689404
S1130EF03F912AE0269F11243019305D3193DEF6AC
S1130F00CF010895462F4770405D4193B3E00FD061
S1130F10C9F7F6CF462F4F70405D4A3318F0495D4C
S1130F2031FD4052419302D0A9F7EACFB4E0A6952F
S1130F309795879577956795BA95C9F70097610551
S1130F40710508959B01AC010A2E069457954795A7
S1130F5037952795BA95C9F7620F731F841F951F9C
S1130F60A01D08952F923F924F925F926F927F92AD
S1130F708F929F92AF92BF92CF92DF92EF92FF92A5
S1130F800F931F93CF93DF93CDB7DEB7CA1BDB0B51
S1130F900FB6F894DEBF0FBECDBF09942A883988F6
S1130FA048885F846E847D848C849B84AA84B984FD
S1130FB0C884DF80EE80FD800C811B81AA81B98109
S1130FC0CE0FD11D0FB6F894DEBF0FBECDBFED011D
S1090FD00895F894FFCF20
S1130FD60A0A00111111130D0A0A11111111130D28
S1130FE6040400111111130D040411111111130D30
S1130FF60A0A000E1111110E0A0A0E111111110E10
S11310060404000E1111110E04040E111111110E17
S1131016040400040C04040E0404000E0404040E68
S11310260404000E111F100E0404001F101E101FCE
S11310360404000E010F110F0404000E111F1111F8
S113104608000101050D1F0C0400C1C9CDD3D5D676
S1131056DADBDCE1E9EDF3F5F6FAFBFC00680158AE
S11310660148013801280100001801080100006048
S1131076015001400130012001000010010001006F
S1131086000000252E313673003E3E20426574F67C
S11310966C74E9732E2E2E0020202063736F6DF37B
S11310A6706F6E74004172744E657476342B534CB3
S11310B64C43507631002020542D426972642061DD
S11310C66C6170FA0020207665727A69F3207631B5
S11310D62E3000202020206669726D7761726520AB
S11310E6202020002020202020542D4269726420D4
S11310F62020202000202020206BE97065726E7964
S1131106F50020205374617469737A74696BE16B1A
S1131116202000202020495020FC7A656D6DF36460
S113112620202000202043ED6D206265E16C6CEDEB
S113113674F3202000202020444D582064697265F1
S10911466B742020200060
S9030000FC
